{
  "contractName": "EnterprisesContract",
  "abi": [
    {
      "inputs": [],
      "stateMutability": "nonpayable",
      "type": "constructor"
    },
    {
      "anonymous": false,
      "inputs": [
        {
          "indexed": false,
          "internalType": "uint256",
          "name": "id",
          "type": "uint256"
        },
        {
          "indexed": false,
          "internalType": "string",
          "name": "name",
          "type": "string"
        },
        {
          "indexed": false,
          "internalType": "string",
          "name": "rfc",
          "type": "string"
        },
        {
          "indexed": false,
          "internalType": "string",
          "name": "email",
          "type": "string"
        },
        {
          "indexed": false,
          "internalType": "string",
          "name": "phone",
          "type": "string"
        }
      ],
      "name": "TaskCreated",
      "type": "event"
    },
    {
      "inputs": [
        {
          "internalType": "uint256",
          "name": "",
          "type": "uint256"
        }
      ],
      "name": "tasks",
      "outputs": [
        {
          "internalType": "uint256",
          "name": "id",
          "type": "uint256"
        },
        {
          "internalType": "string",
          "name": "name",
          "type": "string"
        },
        {
          "internalType": "string",
          "name": "rfc",
          "type": "string"
        },
        {
          "internalType": "string",
          "name": "email",
          "type": "string"
        },
        {
          "internalType": "string",
          "name": "phone",
          "type": "string"
        }
      ],
      "stateMutability": "view",
      "type": "function",
      "constant": true
    },
    {
      "inputs": [],
      "name": "tasksCounter",
      "outputs": [
        {
          "internalType": "uint256",
          "name": "",
          "type": "uint256"
        }
      ],
      "stateMutability": "view",
      "type": "function",
      "constant": true
    },
    {
      "inputs": [
        {
          "internalType": "string",
          "name": "_name",
          "type": "string"
        },
        {
          "internalType": "string",
          "name": "_rfc",
          "type": "string"
        },
        {
          "internalType": "string",
          "name": "_email",
          "type": "string"
        },
        {
          "internalType": "string",
          "name": "_phone",
          "type": "string"
        }
      ],
      "name": "createTask",
      "outputs": [],
      "stateMutability": "nonpayable",
      "type": "function"
    }
  ],
  "bytecode": "0x608060405260016000553480156200001657600080fd5b50620000ff6040518060400160405280600c81526020017f456e7465727072697365203100000000000000000000000000000000000000008152506040518060400160405280601081526020017f456e7465727072697365203120524643000000000000000000000000000000008152506040518060400160405280601281526020017f456e7465727072697365203120456d61696c00000000000000000000000000008152506040518060400160405280601281526020017f456e746572707269736520312050686f6e6500000000000000000000000000008152506200010560201b60201c565b620004f5565b600080815480929190620001199062000316565b91905055506040518060a001604052806000548152602001858152602001848152602001838152602001828152506001600080548152602001908152602001600020600082015181600001556020820151816001019080519060200190620001839291906200022d565b506040820151816002019080519060200190620001a29291906200022d565b506060820151816003019080519060200190620001c19291906200022d565b506080820151816004019080519060200190620001e09291906200022d565b509050507f6afcc7203227b0101f91724d0dc0cd1eb7c705ab5524bdb0e88d70f8f60c3c85600054858585856040516200021f95949392919062000418565b60405180910390a150505050565b8280546200023b90620004c0565b90600052602060002090601f0160209004810192826200025f5760008555620002ab565b82601f106200027a57805160ff1916838001178555620002ab565b82800160010185558215620002ab579182015b82811115620002aa5782518255916020019190600101906200028d565b5b509050620002ba9190620002be565b5090565b5b80821115620002d9576000816000905550600101620002bf565b5090565b7f4e487b7100000000000000000000000000000000000000000000000000000000600052601160045260246000fd5b6000819050919050565b600062000323826200030c565b91507fffffffffffffffffffffffffffffffffffffffffffffffffffffffffffffffff8203620003585762000357620002dd565b5b600182019050919050565b6200036e816200030c565b82525050565b600081519050919050565b600082825260208201905092915050565b60005b83811015620003b057808201518184015260208101905062000393565b83811115620003c0576000848401525b50505050565b6000601f19601f8301169050919050565b6000620003e48262000374565b620003f081856200037f565b93506200040281856020860162000390565b6200040d81620003c6565b840191505092915050565b600060a0820190506200042f600083018862000363565b8181036020830152620004438187620003d7565b90508181036040830152620004598186620003d7565b905081810360608301526200046f8185620003d7565b90508181036080830152620004858184620003d7565b90509695505050505050565b7f4e487b7100000000000000000000000000000000000000000000000000000000600052602260045260246000fd5b60006002820490506001821680620004d957607f821691505b602082108103620004ef57620004ee62000491565b5b50919050565b61099180620005056000396000f3fe608060405234801561001057600080fd5b50600436106100415760003560e01c806372a9f8191461004657806385c3e723146100625780638d97767214610080575b600080fd5b610060600480360381019061005b9190610629565b6100b4565b005b61006a6101d0565b6040516100779190610719565b60405180910390f35b61009a60048036038101906100959190610760565b6101d6565b6040516100ab959493929190610815565b60405180910390f35b6000808154809291906100c6906108b3565b91905055506040518060a00160405280600054815260200185815260200184815260200183815260200182815250600160008054815260200190815260200160002060008201518160000155602082015181600101908051906020019061012e92919061042c565b50604082015181600201908051906020019061014b92919061042c565b50606082015181600301908051906020019061016892919061042c565b50608082015181600401908051906020019061018592919061042c565b509050507f6afcc7203227b0101f91724d0dc0cd1eb7c705ab5524bdb0e88d70f8f60c3c85600054858585856040516101c2959493929190610815565b60405180910390a150505050565b60005481565b60016020528060005260406000206000915090508060000154908060010180546101ff9061092a565b80601f016020809104026020016040519081016040528092919081815260200182805461022b9061092a565b80156102785780601f1061024d57610100808354040283529160200191610278565b820191906000526020600020905b81548152906001019060200180831161025b57829003601f168201915b50505050509080600201805461028d9061092a565b80601f01602080910402602001604051908101604052809291908181526020018280546102b99061092a565b80156103065780601f106102db57610100808354040283529160200191610306565b820191906000526020600020905b8154815290600101906020018083116102e957829003601f168201915b50505050509080600301805461031b9061092a565b80601f01602080910402602001604051908101604052809291908181526020018280546103479061092a565b80156103945780601f1061036957610100808354040283529160200191610394565b820191906000526020600020905b81548152906001019060200180831161037757829003601f168201915b5050505050908060040180546103a99061092a565b80601f01602080910402602001604051908101604052809291908181526020018280546103d59061092a565b80156104225780601f106103f757610100808354040283529160200191610422565b820191906000526020600020905b81548152906001019060200180831161040557829003601f168201915b5050505050905085565b8280546104389061092a565b90600052602060002090601f01602090048101928261045a57600085556104a1565b82601f1061047357805160ff19168380011785556104a1565b828001600101855582156104a1579182015b828111156104a0578251825591602001919060010190610485565b5b5090506104ae91906104b2565b5090565b5b808211156104cb5760008160009055506001016104b3565b5090565b6000604051905090565b600080fd5b600080fd5b600080fd5b600080fd5b6000601f19601f8301169050919050565b7f4e487b7100000000000000000000000000000000000000000000000000000000600052604160045260246000fd5b610536826104ed565b810181811067ffffffffffffffff82111715610555576105546104fe565b5b80604052505050565b60006105686104cf565b9050610574828261052d565b919050565b600067ffffffffffffffff821115610594576105936104fe565b5b61059d826104ed565b9050602081019050919050565b82818337600083830152505050565b60006105cc6105c784610579565b61055e565b9050828152602081018484840111156105e8576105e76104e8565b5b6105f38482856105aa565b509392505050565b600082601f8301126106105761060f6104e3565b5b81356106208482602086016105b9565b91505092915050565b60008060008060808587031215610643576106426104d9565b5b600085013567ffffffffffffffff811115610661576106606104de565b5b61066d878288016105fb565b945050602085013567ffffffffffffffff81111561068e5761068d6104de565b5b61069a878288016105fb565b935050604085013567ffffffffffffffff8111156106bb576106ba6104de565b5b6106c7878288016105fb565b925050606085013567ffffffffffffffff8111156106e8576106e76104de565b5b6106f4878288016105fb565b91505092959194509250565b6000819050919050565b61071381610700565b82525050565b600060208201905061072e600083018461070a565b92915050565b61073d81610700565b811461074857600080fd5b50565b60008135905061075a81610734565b92915050565b600060208284031215610776576107756104d9565b5b60006107848482850161074b565b91505092915050565b600081519050919050565b600082825260208201905092915050565b60005b838110156107c75780820151818401526020810190506107ac565b838111156107d6576000848401525b50505050565b60006107e78261078d565b6107f18185610798565b93506108018185602086016107a9565b61080a816104ed565b840191505092915050565b600060a08201905061082a600083018861070a565b818103602083015261083c81876107dc565b9050818103604083015261085081866107dc565b9050818103606083015261086481856107dc565b9050818103608083015261087881846107dc565b90509695505050505050565b7f4e487b7100000000000000000000000000000000000000000000000000000000600052601160045260246000fd5b60006108be82610700565b91507fffffffffffffffffffffffffffffffffffffffffffffffffffffffffffffffff82036108f0576108ef610884565b5b600182019050919050565b7f4e487b7100000000000000000000000000000000000000000000000000000000600052602260045260246000fd5b6000600282049050600182168061094257607f821691505b602082108103610955576109546108fb565b5b5091905056fea26469706673582212209d4a2938ad94493a4c392625b9407f606f498bed5a7edf88952e8b5933c98d6b64736f6c634300080e0033",
  "immutableReferences": {},
  "source": "// SPDX-License-Identifier: MIT\r\npragma solidity ^0.8.6;\r\n\r\ncontract EnterprisesContract {\r\n    uint256 public tasksCounter = 1;\r\n\r\n    struct Task {\r\n        uint256 id;\r\n        string name;\r\n        string rfc;\r\n        string email;\r\n        string phone;\r\n    }\r\n\r\n    event TaskCreated(\r\n        uint256 id,\r\n        string name,\r\n        string rfc,\r\n        string email,\r\n        string phone\r\n    );\r\n\r\n    mapping(uint256 => Task) public tasks;\r\n\r\n    constructor() {\r\n        createTask(\r\n            \"Enterprise 1\",\r\n            \"Enterprise 1 RFC\",\r\n            \"Enterprise 1 Email\",\r\n            \"Enterprise 1 Phone\"\r\n        );\r\n    }\r\n\r\n    function createTask(\r\n        string memory _name,\r\n        string memory _rfc,\r\n        string memory _email,\r\n        string memory _phone\r\n    ) public {\r\n        tasksCounter++;\r\n        tasks[tasksCounter] = Task(\r\n            tasksCounter,\r\n            _name,\r\n            _rfc,\r\n            _email,\r\n            _phone\r\n        );\r\n        emit TaskCreated(\r\n            tasksCounter, \r\n            _name, \r\n            _rfc, \r\n            _email, \r\n            _phone\r\n        );\r\n    }\r\n}\r\n",
  "sourcePath": "C:\\Users\\darck\\Documents\\zencon\\safely-contracts\\contracts\\EnterprisesContract.sol",
  "compiler": {
    "name": "solc",
    "version": "0.8.14+commit.80d49f37.Emscripten.clang"
  },
  "schemaVersion": "3.4.7",
  "updatedAt": "2022-06-06T15:44:17.647Z",
  "networkType": "ethereum",
  "devdoc": {
    "kind": "dev",
    "methods": {},
    "version": 1
  },
  "userdoc": {
    "kind": "user",
    "methods": {},
    "version": 1
  }
}